:100000000C9434000C9451000C9451000C94510049
:100010000C9451000C9451000C9451000C9451001C
:100020000C9451000C9451000C94C3000C9451009A
:100030000C9451000C9451000C9451000C945100FC
:100040000C9451000C9451000C9451000C945100EC
:100050000C9451000C9451000C9451000C945100DC
:100060000C9451000C94510011241FBECFEFD8E026
:10007000DEBFCDBF11E0A0E0B1E0E8EAFDE002C0E4
:1000800005900D92AC36B107D9F711E0ACE6B1E0BE
:1000900001C01D92AA38B107E1F70E94F6020C9444
:1000A000D2060C94000060E080E00E94610280E4CF
:1000B00091E00E94F00161E080E00E94610287E42B
:1000C00091E00E94F00162E080E00E9461028DE414
:1000D00091E00E94F00163E080E00E94610283E50C
:1000E00091E00C94F0019F938F938AE591E09F93A8
:1000F0008F938EE691E09F938F930E94010460E0BE
:1001000086E00E9461020F900F900F900F900F9069
:100110000F908EE691E00C94F001CF93DF93EC0109
:1001200061E086E00E9461026FEF7FEFCE010E94E6
:10013000160281E691E0DF91CF910C94F001CF930C
:10014000DF93EC0162E086E00E9461026FEF7FEFD7
:10015000CE010E94160285E691E0DF91CF910C94CA
:10016000F001CF93DF93EC0163E086E00E9461022F
:100170006FEF7FEFCE010E94160288E691E0DF91DB
:10018000CF910C94F0011F920F920FB60F92112491
:100190002F938F939F9310926D0110926C01809119
:1001A000860090E090936D0180936C0180916C01CA
:1001B00090916D0120918700922B90936D01809317
:1001C0006C0188B190E2892788B99F918F912F9116
:1001D0000F900FBE0F901F90189520E030E0281769
:1001E00039074CF4EFE3FCE93197F1F700C0000068
:1001F0002F5F3F4FF4CF089587E68093C400E1EC72
:10020000F0E0808188698083789408959091C0009F
:1002100095FFFCCF8093C60008950F931F93CF9353
:10022000DF93EC018C01FE0101900020E9F731978A
:10023000EC1BFD0BC8018C1B9D0B8E179F0730F428
:10024000F80181918F010E940601EDCFDF91CF91DE
:100250001F910F910895ECE7F0E080818460808326
:10026000EAE7F0E080818B688083089580916400E4
:100270008E7F8093640080917A00806480937A00FE
:1002800080917A0086FDFCCF8091780020917900E2
:1002900090E0922B0895E0E8F0E08081886180830F
:1002A000E1E8F0E0808185648083EFE6F0E0808122
:1002B00080628083089520E030E040E85FE3609151
:1002C00086017091870180918801909189010E9437
:1002D0002403609386017093870180938801909333
:1002E000890120E030E040E85FE360918201709195
:1002F000830180918401909185010E942403609381
:100300008201709383018093840190938501089505
:1003100081E60C9406011BB885E08A95F1F7000090
:100320008AB1807F8AB95E9A2A9892E09A95F1F70D
:1003300000C05F9A8AE18A95F1F700C089B1829581
:10034000807F95E09A95F1F700005F989AE19A9581
:10035000F1F700C05F9A95E09A95F1F7000099B126
:100360009AE19A95F1F700C05F9895E09A95F1F7B8
:10037000000087FDDECF5E988AB18F608AB908954C
:10038000282F22952F708F70611102C02A9801C00A
:100390002A9A92E09A95F1F700C05F9A9BB1907FFC
:1003A000922B9BB995E09A95F1F700005F9895E044
:1003B0009A95F1F700005F9A9BB1907F982B9BB9BB
:1003C00085E08A95F1F700005F9895E09A95F1F73E
:1003D00000000E948B018AE18A95F1F700C0089520
:1003E0000F931F93CF93DF93EC0188818823C9F08B
:1003F000853281F48E010F5F1F4F8981805361E048
:10040000883028F085E20E94C00161E089810E9465
:10041000C00104C061E00E94C0018E01E801219684
:10042000E4CFDF91CF911F910F910895EF92FF924A
:100430000F931F93CF93DF9300D000D01F92CDB7BF
:10044000DEB79B01AE014F5F5F4F7A0145E0F701D8
:1004500011924A95E9F7FE0136960AE010E00097FE
:1004600031F0B8010E94D9038293CB01F8CF2F3F1E
:10047000FFEF3F0741F4F7018F010E191F0981912A
:100480008823D1F304C005E010E0021B130B0530F4
:1004900011055CF4F701E00FF11F808161E0805DE0
:1004A0000E94C0010F5F1F4FF2CF0F900F900F906F
:1004B0000F900F90DF91CF911F910F91FF90EF90D0
:1004C0000895843178F4623031F0633031F0613076
:1004D00029F4806403C08C5E01C08C5A60E080689F
:1004E0000C94C0010895CF93DF931F92CDB7DEB770
:1004F0002FEF36E791E0215030409040E1F700C007
:1005000000009AB19F609AB9579A229A569A9BB165
:10051000907F9BB95F985E982A98E2E0EA95F1F7A0
:1005200000C05F9A9BB1907F92609BB9F2E0FA9510
:10053000F1F700C05F9822E02A95F1F700C05F9ABA
:100540009BB1907F92609BB932E03A95F1F700C081
:100550005F9892E09A95F1F700C05F9A9BB1907F07
:1005600098609BB9E2E0EA95F1F700C05F98F2E08D
:10057000FA95F1F700C089830E948B015F9A9BB1C5
:10058000907F9BB922E02A95F1F700C05F9832E096
:100590003A95F1F700C05F9A9BB1907F96609BB946
:1005A00092E09A95F1F700C05F98E2E0EA95F1F7E2
:1005B00000C060E089818C600E94C00160E088E238
:1005C0000E94C001F2E0FA95F1F700C060E081E01E
:1005D0000E94C00160E080E00E94610222E02A9552
:1005E000F1F700C00F90DF91CF91089587B180722D
:1005F00087B980E288B90E944B01789480E00E941C
:10060000730260E081E00E94C0018FE99FE00197E2
:10061000F1F700C000000E9453008FE090E00E94BC
:100620008D0086E190E00E949F0087E190E00E94AB
:10063000B1009FEF21EE84E0915020408040E1F72F
:1006400000C00000EACF5058BB27AA270ED077C0C1
:1006500068D030F06DD020F031F49F3F11F41EF4DB
:100660005DC00EF4E095E7FB53C0E92F79D080F32D
:10067000BA17620773078407950718F071F49EF59F
:1006800091C00EF4E0950B2EBA2FA02D0B01B901ED
:1006900090010C01CA01A0011124FF27591B99F0F8
:1006A000593F50F4503E68F11A16F040A22F232F04
:1006B000342F4427585FF3CF469537952795A79554
:1006C000F0405395C9F77EF41F16BA0B620B730BFB
:1006D000840BBAF09150A1F0FF0FBB1F661F771F6C
:1006E000881FC2F70EC0BA0F621F731F841F48F421
:1006F000879577956795B795F7959E3F08F0B3CFA7
:100700009395880F08F09927EE0F97958795089590
:1007100097F99F6780E870E060E008959FEF80ECB4
:10072000089500240A941616170618060906089557
:1007300000240A9412161306140605060895092EBD
:100740000394000C11F4882352F0BB0F40F4BF2B2C
:1007500011F460FF04C06F5F7F4F8F4F9F4F08956C
:1007600057FD9058440F551F59F05F3F71F0479562
:10077000880F97FB991F61F09F3F79F08795089547
:10078000121613061406551FF2CF4695F1DF08C066
:10079000161617061806991FF1CF86957105610583
:1007A00008940895E894BB2766277727CB0197F92B
:1007B000089597FB072E16F4009407D077FD09D013
:1007C0000E94ED0307FC05D03EF4909581959F4F64
:1007D0000895709561957F4F0895AA1BBB1B51E149
:1007E00007C0AA1FBB1FA617B70710F0A61BB70BA1
:1007F000881F991F5A95A9F780959095BC01CD0146
:100800000895AEE0B0E0E7E0F4E00C94A9060D89AD
:100810001E8986E08C831A8309838FEF9FE79E836E
:100820008D83AE01475E5F4F6F89788DCE01019653
:100830000E942304EF81F885E00FF11F10822E96AD
:10084000E4E00C94C506ACE0B0E0E9E2F4E00C941E
:100850009B067C016B018A01FC0117821682838151
:1008600081FFBDC1CE0101964C01F7019381F601D4
:1008700093FD859193FF81916F01882309F4ABC1AA
:10088000853239F493FD859193FF81916F01853213
:1008900029F4B70190E00E940B06E7CF512C312CD0
:1008A00020E02032A0F48B3269F030F4803259F02D
:1008B000833269F420612CC08D3239F0803339F4F1
:1008C000216026C02260246023C0286021C027FD4B
:1008D00027C030ED380F3A3078F426FF06C0FAE032
:1008E0005F9E300D1124532E13C08AE0389E300DC8
:1008F0001124332E20620CC08E3221F426FD6BC1F0
:10090000206406C08C3611F4206802C0883641F499
:10091000F60193FD859193FF81916F018111C1CF04
:10092000982F9F7D9554933028F40C5F1F4FFFE361
:10093000F9830DC0833631F0833771F0833509F0C8
:100940005BC022C0F801808189830E5F1F4F442461
:100950004394512C540115C03801F2E06F0E711C04
:10096000F801A080B18026FF03C0652D70E002C0B1
:100970006FEF7FEFC5012C870E9400062C018301D9
:100980002C852F77222E17C03801F2E06F0E711CD4
:10099000F801A080B18026FF03C0652D70E002C081
:1009A0006FEF7FEFC5012C870E94F5052C012C8588
:1009B0002068222E830123FC1BC0832D90E0481663
:1009C0005906B0F4B70180E290E00E940B063A9419
:1009D000F4CFF50127FC859127FE81915F01B701D6
:1009E00090E00E940B0631103A94F1E04F1A510842
:1009F0004114510471F7E5C0843611F0893639F598
:100A0000F80127FF07C060817181828193810C5FAB
:100A10001F4F08C060817181882777FD8095982FCE
:100A20000E5F1F4F2F76B22E97FF09C090958095CD
:100A3000709561957F4F8F4F9F4F2068B22E2AE0AF
:100A400030E0A4010E943D06A82EA81844C08537B6
:100A500029F42F7EB22E2AE030E025C0F22FF97F54
:100A6000BF2E8F36C1F018F4883579F0B4C08037C6
:100A700019F0883721F0AFC02F2F2061B22EB4FEBD
:100A80000DC08B2D8460B82E09C024FF0AC09F2F93
:100A90009660B92E06C028E030E005C020E130E0C5
:100AA00002C020E132E0F801B7FE07C06081718129
:100AB000828193810C5F1F4F06C06081718180E04D
:100AC00090E00E5F1F4FA4010E943D06A82EA818BB
:100AD000FB2DFF77BF2EB6FE0BC02B2D2E7FA5144E
:100AE00050F4B4FE0AC0B2FC08C02B2D2E7E05C007
:100AF0007A2C2B2D03C07A2C01C0752C24FF0DC03D
:100B0000FE01EA0DF11D8081803311F4297E09C0B8
:100B100022FF06C07394739404C0822F867809F074
:100B2000739423FD13C020FF06C05A2C731418F4CD
:100B3000530C5718732C731468F4B70180E290E0DB
:100B40002C870E940B0673942C85F5CF731410F438
:100B5000371801C0312C24FF12C0B70180E390E0A8
:100B60002C870E940B062C8522FF17C021FF03C093
:100B700088E590E002C088E790E0B7010CC0822FC2
:100B8000867859F021FD02C080E201C08BE227FD8A
:100B90008DE2B70190E00E940B06A51438F4B7016E
:100BA00080E390E00E940B065A94F7CFAA94F401D8
:100BB000EA0DF11D8081B70190E00E940B06A110A3
:100BC000F5CF332009F451CEB70180E290E00E94C6
:100BD0000B063A94F6CFF7018681978102C08FEF1A
:100BE0009FEF2C96E2E10C94B706FC010590615052
:100BF00070400110D8F7809590958E0F9F1F089533
:100C0000FC016150704001900110D8F780959095DB
:100C10008E0F9F1F08950F931F93CF93DF93182F6D
:100C2000092FEB018B8181FD03C08FEF9FEF20C067
:100C300082FF10C04E815F812C813D814217530796
:100C40007CF4E881F9819F012F5F3F4F398328832E
:100C5000108306C0E885F985812F0995892B29F72E
:100C60002E813F812F5F3F4F3F832E83812F902F17
:100C7000DF91CF911F910F910895FA01AA27283093
:100C800051F1203181F1E8946F936E7F6E5F7F4F59
:100C90008F4F9F4FAF4FB1E03ED0B4E03CD0670FD5
:100CA000781F891F9A1FA11D680F791F8A1F911D28
:100CB000A11D6A0F711D811D911DA11D20D009F478
:100CC00068943F912AE0269F11243019305D3193BA
:100CD000DEF6CF010895462F4770405D4193B3E0A3
:100CE0000FD0C9F7F6CF462F4F70405D4A3318F04A
:100CF000495D31FD4052419302D0A9F7EACFB4E0FB
:100D0000A6959795879577956795BA95C9F70097B2
:100D10006105710508959B01AC010A2E0694579553
:100D2000479537952795BA95C9F7620F731F841FAA
:100D3000951FA01D08952F923F924F925F926F9240
:100D40007F928F929F92AF92BF92CF92DF92EF925B
:100D5000FF920F931F93CF93DF93CDB7DEB7CA1BDC
:100D6000DB0B0FB6F894DEBF0FBECDBF09942A8807
:100D7000398848885F846E847D848C849B84AA84AF
:100D8000B984C884DF80EE80FD800C811B81AA813C
:100D9000B981CE0FD11D0FB6F894DEBF0FBECDBF07
:080DA000ED010895F894FFCF66
:100DA8000C12120C000000000C1204081E000000B7
:100DB8000A15110A040000000305090B0B18180096
:100DC8001F0E0E0404040404010105051515150081
:100DD8000E11111F1F1F1F0000000000000000005F
:100DE80053706565643A00446973743A00426174EB
:100DF800743A00506F7765723A002564206D736706
:0C0E080000206D690020560020570000FB
:00000001FF
